:080000000C9483000C94000035
:100008000C9400000C9400000C9400000C94000068
:100018000C9400000C9400000C9400000C94000058
:100028000C9400000C9400000C9400000C94000048
:100038000C9400000C9400000C9400000C94000038
:100048000C9400000C9400000C9400000C94000028
:100058000C9400000C9400000C9400000C94B80060
:100068000C9400000C94D8000C9400000C94000030
:100078000C9400000C9400000C9400000C940000F8
:100088000C9400000C9400000C9400000C940000E8
:100098000C9400000C9400000C9400000C940000D8
:1000A8000C9400000C9400000C9400000C940000C8
:1000B8000C9400000C9400000C9400000C940000B8
:1000C8000C9400000C9400000C9400000C940000A8
:1000D8000C9400000C9400000C9400001027E80316
:1000E80064000A0001000010000110000100000077
:1000F80000000000000008000300F6000000F8946B
:10010800EE27EFBBF1E0F5BFE5BFE0937400E093A5
:1001180075008DE0A2E0BB27ED938A95E9F780E0B2
:1001280090E2A0E0B2E0ED930197E9F7EEEFF0E09E
:1001380085919591009761F0A591B59105901590DD
:10014800BF01F00105900D920197E1F7FB01F0CF97
:100158008BBF8CBFE0E0EEBBEFEFEDBFE1E2EEBF9F
:10016800C0E0DAE00C94F000EA93FA93EFB7EA9370
:100178001A930A931091C0000091C600E12FEC7108
:1001880081F4E62D6394F0E0E050F64F0083E0E15F
:10019800E61509F466248394E0E1E81511F488244F
:1001A800F09A0991199113C0EA93FA93EFB7EA9379
:1001B800992069F09A94EA2DA394F0E0E05FF54F56
:1001C800E081E093C600E0E1EA1509F4AA24E99188
:1001D800EFBFF991E9911895E0E8E0936100E0E05C
:1001E800E0936100E1E0E1B9E0E0E2B9E4B9E5B942
:1001F800E0ECE7B9E0E0E8B9EAB9EBB9EDB9EEB996
:10020800E0BBE1BBE3BBE4BBE0E4E0930101E0E079
:10021800E0930201E0930401E0930501E0930701F4
:10022800E0930801E0930A01E0930B01E4BDE5BD0A
:10023800E6BDE7BDE8BDE0938000E0938100E09370
:100248008500E0938400E0938700E0938600E093C4
:100258008900E0938800E0938B00E0938A00E093A4
:100268008D00E0938C00E093B600E1E2E093B000EB
:10027800E3E0E093B100E0E0E093B200E093B30084
:10028800E093B400E0939000E0939100E093950030
:10029800E0939400E0939700E0939600E093990030
:1002A800E0939800E0939B00E0939A00E0939D0010
:1002B800E0939C00E093A000E093A100E093A500E8
:1002C800E093A400E093A700E093A600E093A900C0
:1002D800E093A800E093AB00E093AA00E093AD00A0
:1002E800E093AC00E0932001E0932101E093250125
:1002F800E0932401E0932701E0932601E09329018C
:10030800E0932801E0932B01E0932A01E0932D016B
:10031800E0932C01E0936E00E0936F00E09370008F
:10032800E0937100E0937200E0937300E09369003A
:10033800E0936A00EDBBE0936B00E0936C00E09300
:100348006D00E0936800E093C000E8EDE093C10021
:10035800E6E0E093C200E0E0E093C500E7E0E09368
:10036800C400E0E0E093C900E093D100E0933101DC
:10037800E0E8E0BFE0E0E0937B00E0937F00E093FB
:100388007A00ECBDE093BC007894109A469A47989E
:100398003324442433244424EFEFF0E03E164F0680
:1003A8005CF43092B400A4E6B0E00E94E201E1E01F
:1003B800F0E03E0E4F1EF0CFE8CFFFCF109639F099
:1003C80086E69EE00197F1F7A8951197C9F7089579
:00000001FF
