:0A0000000C9489000C9400000C948D
:10000A0000000C9400000C9400000C9400000C9466
:10001A0000000C9400000C9400000C9400000C9456
:10002A0000000C94BE000C9400000C9400000C9488
:10003A0000000C9400000C9400000C9400000C9436
:10004A0000000C9400000C9400000C9400000C9426
:10005A0000000C9400000C9400000C94BF000C9457
:10006A0000000C94F2000C9400000C9427010C94EC
:10007A0000000C9400000C9400000C9400000C94F6
:10008A0000000C9400000C9400000C9400000C94E6
:10009A0000000C9400000C9400000C9400000C94D6
:1000AA0000000C9400000C9400000C9400000C94C6
:1000BA0000000C9400000C9400000C9400000C94B6
:1000CA0000000C9400000C9400000C9400000C94A6
:1000DA0000000C9400000C9400001027E803640050
:1000EA000A000100001000011000010000000000D9
:1000FA0000000000242531642C2531640A0D00001B
:10010A0008000300F6000000F894EE27EFBBF1E0C8
:10011A00F5BFE5BFE0937400E09375008DE0A2E0BF
:10012A00BB27ED938A95E9F780E090E2A0E0B2E080
:10013A00ED930197E9F7EAE0F1E08591959100974F
:10014A0061F0A591B59105901590BF01F001059058
:10015A000D920197E1F7FB01F0CF8BBF8CBFE0E076
:10016A00EEBBEFEFEDBFE1E2EEBFC0E0DAE00C94E8
:10017A009A011895EA93FA93EFB7EA931A930A93B6
:10018A001091C0000091C600E12FEC7181F4E32DBB
:10019A003394F0E0E85FF54F0083E0E2E31509F4F9
:1001AA0033245394E0E2E51511F45524F09A0991A9
:1001BA00199126C01A935520F1F3E62D6394F0E0C5
:1001CA00E85FF54F1081E0E2E61509F46624F89439
:1001DA005A947894E12F19910895EA93FA93EFB714
:1001EA00EA93AA2069F0AA94E72D7394F0E0E85DF7
:1001FA00F54FE081E093C600E0E2E71509F47724C1
:10020A00E991EFBFF991E9911895AA93E0E2EA150D
:10021A00E9F3F894AA2021F4E091C000E07269F4AD
:10022A00E82D8394F0E0E85DF54FA881A083E0E231
:10023A00E81509F48824A39403C0E881E093C60072
:10024A0078942DC0B0907800C09079001895AA9340
:10025A00E881EF71E064E0937C00E881E07221F0CC
:10026A00E0917B00E86003C0E0917B00E77FE093C8
:10027A007B0081E38A95F1F7E0917A00EF77E093CA
:10028A007A00E0917A00E06CE0937A00E3B7E17FCC
:10029A00E160E3BF8895EE7FE3BFEB2DFC2D21964D
:1002AA000895E4E6E093B400469A47980895E4E690
:1002BA00E093B4004698479A0895E4E6E093AC00C8
:1002CA004598449A0895E4E6E093AC00459A449828
:1002DA000895E4E6E093AA004398429A0895E4E672
:1002EA00E093AA00439A42980895E4E6E093A800AE
:1002FA004198409A0895E4E6E093A800419A40980C
:10030A000895A1E0A4DFA0E0BAE004C0A2E09FDF64
:10031A00A4E0BAE0662777270E948A040E94D104E3
:10032A00AAE0B0E00E946C040895E0E8E09361005E
:10033A00E0E0E0936100E7E0E1B9E4E0E2B9E0E09F
:10034A00E4B9E5B9EFEFE7B9E0E0E8B9EAB9EBB942
:10035A00EDB9EEB9E0BBE1BBE3BBE4BBE8E7E09390
:10036A000101E0E0E0930201E0930401E09305015A
:10037A00E0930701E0930801E0930A01E0930B017F
:10038A00E4BDE5BDE6BDE7BDE8BDE0938000E093CE
:10039A008100E0938500E0938400E0938700E09376
:1003AA008600E0938900E0938800E0938B00E09355
:1003BA008A00E0938D00E0938C00E093B600E1E2BE
:1003CA00E093B000E2E0E093B100E0E0E093B20035
:1003DA00E093B300E093B400E0939000E0939100BF
:1003EA00E0939500E0939400E0939700E0939600E1
:1003FA00E0939900E0939800E0939B00E0939A00C1
:10040A00E0939D00E0939C00E9EAE093A000E2E01B
:10041A00E093A100E0E0E093A500E093A400E0935C
:10042A00A700E093A600E093A900E093A800E09358
:10043A00AB00E093AA00E093AD00E093AC00E09338
:10044A002001E0932101E0932501E0932401E09348
:10045A002701E0932601E0932901E0932801E09324
:10046A002B01E0932A01E0932D01E0932C01E09304
:10047A006E00E0936F00E0937000E0937100E093E8
:10048A007200E0937300E0936900E0936A00EDBBA9
:10049A00E0936B00E0936C00EFEFE0936D00E4E013
:1004AA00E0936800E0E0E093C000E8EDE093C1006B
:1004BA00E6E0E093C200E0E0E093C500E7E0E09305
:1004CA00C400E0E0E093C900E093D100E093310179
:1004DA00E0E8E0BFE0E0E0937F00E0937E00E09395
:1004EA007D00E0E4E0937C00EEE8E0937A00E0E04F
:1004FA00E0937B00ECBDE093BC007894E0E0E51566
:10050A0008F03EC057DE4E2EE2E5E415D9F4129803
:10051A00AAE0B0E00E946C04129AF3DEF7DEEEEF76
:10052A00F0E0FA93EA93E6E8F1E0662777270E947B
:10053A00DA04EBE8F1E0662777270E94DA0488E01C
:10054A0063D12A96EBE4E41529F4ABDEB6DEC1DE0C
:10055A00CCDE119AECE4E41529F4A9DEB4DEBFDEA0
:10056A00CADE109AE3E5E41559F4E0E0E093A80046
:10057A00E093AA00E093AC00E093B40011981098BD
:10058A00BDCFFFCFBA93AA93AA810E940A01A8817C
:10059A00B981ED91FD913196FE93EE9323960895DC
:1005AA00BA93AA9326970E94DF0410E0AC85BD8512
:1005BA00E0E0F0E0ED93FC93EA89FB893196EA8B5F
:1005CA00FB8B3197E4912E2FE03009F415C1E12F0E
:1005DA00E03039F4253211F411E002C00E944704D8
:1005EA000AC1E130A9F4253219F40E94470402C174
:1005FA0012E040E000E02D3211F401E0FCC02B32A1
:10060A0011F44BE2F8C0203211F440E2F4C002C007
:10061A00E23039F450E013E0203311F40068EBC003
:10062A0003C0E33009F0E7C0203310F02A3308F0A2
:10063A0007C0AAE05A9F502DE22FE0535E0FDBC09D
:10064A00E22FE33649F40E944E04E889F989A4812D
:10065A00AA930E945404CEC0E33741F40E944E0488
:10066A000E945A040E942E041E2F0AC0E03761F429
:10067A000E944E040E945A040E943A041E2F0860E7
:10068A0002600F7730E034C0E43611F0E93611F435
:10069A00046002C0E53731F4E4EEF0E0EE83FF8354
:1006AA0015E00CC0E83511F4086003C0E83709F01A
:1006BA00A1C0EEEEF0E0EE83FF8314E002FF14C067
:1006CA000E944E040E946404AB85AA233AF4EA8588
:1006DA00FB850E94BC04EA87FB874DE2403011F09B
:1006EA001F5F01C00B7F04C00E944E040E94640475
:1006FA0000FD11C0151778F407FF08C002FF04C0F7
:10070A000B7F242F115001C020E301C020E20E9478
:10071A0047045150EFCF312F01FF17C03030A1F0FD
:10072A0003FF06C0EE81FF812591EE83FF8305C09A
:10073A00AE81BF812D91AE83BF830E9447045030A2
:10074A0009F051503150EACF4BC020E3EE81FF81CE
:10075A000E94D604E887F987EE81FF813296EE83FC
:10076A00FF83E885F985AA85BB85AE17BF0750F0D8
:10077A002F5FA885B985EA85FB85EA1BFB0BEA870B
:10078A00FB87EFCF2A3328F003FF02C0295F01C09D
:10079A00295D04FD1AC0213320F4A885B985119773
:1007AA0009F409C0531710F000FF01C013C020E27A
:1007BA0007FF0BC020E3006102FF07C00B7F4A93CB
:1007CA000E945404503009F051500E94470450309E
:1007DA0009F051503150A885B985129708F0B5CF64
:1007EA0000FF08C0503031F05150E0E2EA930E9415
:1007FA005404F8CF10E0E0CEAC85BD850E94CD044C
:10080A000E94E60464960895FF92F82E26971A939A
:10081A000A93DE0114960E94B8048D01E0E0EC838D
:10082A00ED83EE83EF83DE0118960E94B8040E94DE
:10083A00CD04FA93EA931A930A93E7ECF2E0FA9357
:10084A00EA93DE011896ACDE198108812896FF909A
:10085A000895BA93AA93A991B991EE27FF276D91AA
:10086A00662311F03196FBCF0895BA93AA93AA276B
:10087A00BB27E991F9910590002011F01196FBCF61
:10088A00FD0108952A93AD85BE85EF85F8890995FE
:10089A000895E889F9893497E88BF98B0895AD852D
:1008AA00BE85EF85F88909950895A889B9891496AE
:1008BA000E94CD04EE83FF83AE81BF810895A8898B
:1008CA00B98914960E94CD04EA87FB870895109689
:1008DA0039F086E69EE00197F1F7A8951197C9F7D6
:1008EA00089550E8572711F45F932BC05F3F31F00A
:1008FA00660F000C57956795752F08955F93002032
:10090A000AF02BC024C0689401C0E8943097604074
:10091A007040B1F0002426F0772312F400942BD013
:10092A00172E7EE1112032F07A95EE0FFF1F661F17
:10093A00111CF9CFEF2FF62F612D5F93D2DF5F9154
:10094A000895EE27FF27662777275F910895EFEF2F
:10095A00FFEF6FE77FEF5F910895EFEFFFEF6FE72C
:10096A007FE75F9108950024AF0DB01D0895F195BA
:10097A00E195F0400895F09560957095E195FF4FE7
:10098A006F4F7F4F08956F2F660F660B762F08956E
:10099A00ED91FC9111970895ED93FD936D937C93DE
:1009AA0008950590F491E02D08957A936A93FA9345
:1009BA00EA9308955A934A933A932A931A930A9375
:1009CA0008955D814C813B812A81198108810895AE
:00000001FF
